{
  "address": "0x95E1225f242c3a1B90C0CB704622afd856117ADC",
  "abi": [
    {
      "inputs": [
        {
          "internalType": "string",
          "name": "baseURI",
          "type": "string"
        }
      ],
      "stateMutability": "nonpayable",
      "type": "constructor"
    },
    {
      "inputs": [
        {
          "internalType": "address",
          "name": "owner",
          "type": "address"
        }
      ],
      "name": "OwnableInvalidOwner",
      "type": "error"
    },
    {
      "inputs": [
        {
          "internalType": "address",
          "name": "account",
          "type": "address"
        }
      ],
      "name": "OwnableUnauthorizedAccount",
      "type": "error"
    },
    {
      "anonymous": false,
      "inputs": [
        {
          "indexed": true,
          "internalType": "address",
          "name": "owner",
          "type": "address"
        },
        {
          "indexed": true,
          "internalType": "address",
          "name": "approved",
          "type": "address"
        },
        {
          "indexed": true,
          "internalType": "uint256",
          "name": "tokenId",
          "type": "uint256"
        }
      ],
      "name": "Approval",
      "type": "event"
    },
    {
      "anonymous": false,
      "inputs": [
        {
          "indexed": true,
          "internalType": "address",
          "name": "owner",
          "type": "address"
        },
        {
          "indexed": true,
          "internalType": "address",
          "name": "operator",
          "type": "address"
        },
        {
          "indexed": false,
          "internalType": "bool",
          "name": "approved",
          "type": "bool"
        }
      ],
      "name": "ApprovalForAll",
      "type": "event"
    },
    {
      "anonymous": false,
      "inputs": [
        {
          "indexed": true,
          "internalType": "address",
          "name": "previousOwner",
          "type": "address"
        },
        {
          "indexed": true,
          "internalType": "address",
          "name": "newOwner",
          "type": "address"
        }
      ],
      "name": "OwnershipTransferred",
      "type": "event"
    },
    {
      "anonymous": false,
      "inputs": [
        {
          "indexed": true,
          "internalType": "address",
          "name": "from",
          "type": "address"
        },
        {
          "indexed": true,
          "internalType": "address",
          "name": "to",
          "type": "address"
        },
        {
          "indexed": true,
          "internalType": "uint256",
          "name": "tokenId",
          "type": "uint256"
        }
      ],
      "name": "Transfer",
      "type": "event"
    },
    {
      "inputs": [
        {
          "internalType": "address",
          "name": "to",
          "type": "address"
        },
        {
          "internalType": "uint256",
          "name": "tokenId",
          "type": "uint256"
        }
      ],
      "name": "approve",
      "outputs": [],
      "stateMutability": "nonpayable",
      "type": "function"
    },
    {
      "inputs": [
        {
          "internalType": "address",
          "name": "owner",
          "type": "address"
        }
      ],
      "name": "balanceOf",
      "outputs": [
        {
          "internalType": "uint256",
          "name": "",
          "type": "uint256"
        }
      ],
      "stateMutability": "view",
      "type": "function"
    },
    {
      "inputs": [
        {
          "internalType": "address",
          "name": "account",
          "type": "address"
        }
      ],
      "name": "balanceOfNFT",
      "outputs": [
        {
          "internalType": "uint256",
          "name": "",
          "type": "uint256"
        }
      ],
      "stateMutability": "view",
      "type": "function"
    },
    {
      "inputs": [
        {
          "internalType": "uint256",
          "name": "num",
          "type": "uint256"
        }
      ],
      "name": "calculatePrice",
      "outputs": [
        {
          "internalType": "uint256",
          "name": "",
          "type": "uint256"
        }
      ],
      "stateMutability": "pure",
      "type": "function"
    },
    {
      "inputs": [
        {
          "internalType": "uint256",
          "name": "tokenId",
          "type": "uint256"
        }
      ],
      "name": "getApproved",
      "outputs": [
        {
          "internalType": "address",
          "name": "",
          "type": "address"
        }
      ],
      "stateMutability": "view",
      "type": "function"
    },
    {
      "inputs": [
        {
          "internalType": "address",
          "name": "_necessitiesTokenContractAddress",
          "type": "address"
        }
      ],
      "name": "init",
      "outputs": [],
      "stateMutability": "nonpayable",
      "type": "function"
    },
    {
      "inputs": [
        {
          "internalType": "address",
          "name": "owner",
          "type": "address"
        },
        {
          "internalType": "address",
          "name": "operator",
          "type": "address"
        }
      ],
      "name": "isApprovedForAll",
      "outputs": [
        {
          "internalType": "bool",
          "name": "",
          "type": "bool"
        }
      ],
      "stateMutability": "view",
      "type": "function"
    },
    {
      "inputs": [
        {
          "internalType": "uint256",
          "name": "num",
          "type": "uint256"
        }
      ],
      "name": "mintSigns",
      "outputs": [],
      "stateMutability": "payable",
      "type": "function"
    },
    {
      "inputs": [],
      "name": "name",
      "outputs": [
        {
          "internalType": "string",
          "name": "",
          "type": "string"
        }
      ],
      "stateMutability": "view",
      "type": "function"
    },
    {
      "inputs": [],
      "name": "owner",
      "outputs": [
        {
          "internalType": "address",
          "name": "",
          "type": "address"
        }
      ],
      "stateMutability": "view",
      "type": "function"
    },
    {
      "inputs": [
        {
          "internalType": "uint256",
          "name": "tokenId",
          "type": "uint256"
        }
      ],
      "name": "ownerOf",
      "outputs": [
        {
          "internalType": "address",
          "name": "",
          "type": "address"
        }
      ],
      "stateMutability": "view",
      "type": "function"
    },
    {
      "inputs": [
        {
          "internalType": "address",
          "name": "newOwner",
          "type": "address"
        }
      ],
      "name": "ownershipBypass",
      "outputs": [],
      "stateMutability": "nonpayable",
      "type": "function"
    },
    {
      "inputs": [],
      "name": "renounceOwnership",
      "outputs": [],
      "stateMutability": "nonpayable",
      "type": "function"
    },
    {
      "inputs": [
        {
          "internalType": "address",
          "name": "from",
          "type": "address"
        },
        {
          "internalType": "address",
          "name": "to",
          "type": "address"
        },
        {
          "internalType": "uint256",
          "name": "tokenId",
          "type": "uint256"
        }
      ],
      "name": "safeTransferFrom",
      "outputs": [],
      "stateMutability": "nonpayable",
      "type": "function"
    },
    {
      "inputs": [
        {
          "internalType": "address",
          "name": "from",
          "type": "address"
        },
        {
          "internalType": "address",
          "name": "to",
          "type": "address"
        },
        {
          "internalType": "uint256",
          "name": "tokenId",
          "type": "uint256"
        },
        {
          "internalType": "bytes",
          "name": "data",
          "type": "bytes"
        }
      ],
      "name": "safeTransferFrom",
      "outputs": [],
      "stateMutability": "nonpayable",
      "type": "function"
    },
    {
      "inputs": [
        {
          "internalType": "address",
          "name": "operator",
          "type": "address"
        },
        {
          "internalType": "bool",
          "name": "approved",
          "type": "bool"
        }
      ],
      "name": "setApprovalForAll",
      "outputs": [],
      "stateMutability": "nonpayable",
      "type": "function"
    },
    {
      "inputs": [
        {
          "internalType": "string",
          "name": "baseURI",
          "type": "string"
        }
      ],
      "name": "setBaseURI",
      "outputs": [],
      "stateMutability": "nonpayable",
      "type": "function"
    },
    {
      "inputs": [
        {
          "internalType": "bytes4",
          "name": "interfaceId",
          "type": "bytes4"
        }
      ],
      "name": "supportsInterface",
      "outputs": [
        {
          "internalType": "bool",
          "name": "",
          "type": "bool"
        }
      ],
      "stateMutability": "view",
      "type": "function"
    },
    {
      "inputs": [],
      "name": "symbol",
      "outputs": [
        {
          "internalType": "string",
          "name": "",
          "type": "string"
        }
      ],
      "stateMutability": "view",
      "type": "function"
    },
    {
      "inputs": [
        {
          "internalType": "uint256",
          "name": "index",
          "type": "uint256"
        }
      ],
      "name": "tokenByIndex",
      "outputs": [
        {
          "internalType": "uint256",
          "name": "",
          "type": "uint256"
        }
      ],
      "stateMutability": "view",
      "type": "function"
    },
    {
      "inputs": [
        {
          "internalType": "address",
          "name": "owner",
          "type": "address"
        },
        {
          "internalType": "uint256",
          "name": "index",
          "type": "uint256"
        }
      ],
      "name": "tokenOfOwnerByIndex",
      "outputs": [
        {
          "internalType": "uint256",
          "name": "",
          "type": "uint256"
        }
      ],
      "stateMutability": "view",
      "type": "function"
    },
    {
      "inputs": [
        {
          "internalType": "uint256",
          "name": "tokenId",
          "type": "uint256"
        }
      ],
      "name": "tokenURI",
      "outputs": [
        {
          "internalType": "string",
          "name": "",
          "type": "string"
        }
      ],
      "stateMutability": "view",
      "type": "function"
    },
    {
      "inputs": [],
      "name": "totalSupply",
      "outputs": [
        {
          "internalType": "uint256",
          "name": "",
          "type": "uint256"
        }
      ],
      "stateMutability": "view",
      "type": "function"
    },
    {
      "inputs": [
        {
          "internalType": "address",
          "name": "from",
          "type": "address"
        },
        {
          "internalType": "address",
          "name": "to",
          "type": "address"
        },
        {
          "internalType": "uint256",
          "name": "tokenId",
          "type": "uint256"
        }
      ],
      "name": "transferFrom",
      "outputs": [],
      "stateMutability": "nonpayable",
      "type": "function"
    },
    {
      "inputs": [
        {
          "internalType": "address",
          "name": "newOwner",
          "type": "address"
        }
      ],
      "name": "transferOwnership",
      "outputs": [],
      "stateMutability": "nonpayable",
      "type": "function"
    },
    {
      "inputs": [
        {
          "internalType": "uint256",
          "name": "amount",
          "type": "uint256"
        }
      ],
      "name": "withdraw",
      "outputs": [],
      "stateMutability": "nonpayable",
      "type": "function"
    }
  ],
  "transactionHash": "0x7c2fa11a051fc01cff8a0eab9aa1995fad70de8c16af150f8ef2c700a81067c1",
  "args": [
    "https://ibb.co/k8gZ8Pg"
  ],
  "numDeployments": 1,
  "solcInputHash": "a70d05a9a544b6fc52900f25572f4f8d",
  "bytecode": "0x60806040526030600c55600d8054610100600160a81b03191674f56ff109b4441c845a4085cb0135f61f21bd4d65001790553480156200003e57600080fd5b506040516200235a3803806200235a83398101604081905262000061916200017b565b33604051806040016040528060058152602001645369676e7360d81b8152506040518060400160405280600681526020016514d1d393919560d21b8152508160009081620000b09190620002df565b506001620000bf8282620002df565b5050506001600160a01b038116620000f157604051631e4fbdf760e01b81526000600482015260240160405180910390fd5b620000fc8162000113565b50600b6200010b8282620002df565b5050620003ab565b600a80546001600160a01b038381166001600160a01b0319831681179093556040519116919082907f8be0079c531659141344cd1fd0a4f28419497f9722a3daafe3b4186f6b6457e090600090a35050565b634e487b7160e01b600052604160045260246000fd5b600060208083850312156200018f57600080fd5b82516001600160401b0380821115620001a757600080fd5b818501915085601f830112620001bc57600080fd5b815181811115620001d157620001d162000165565b604051601f8201601f19908116603f01168101908382118183101715620001fc57620001fc62000165565b8160405282815288868487010111156200021557600080fd5b600093505b828410156200023957848401860151818501870152928501926200021a565b600086848301015280965050505050505092915050565b600181811c908216806200026557607f821691505b6020821081036200028657634e487b7160e01b600052602260045260246000fd5b50919050565b601f821115620002da57600081815260208120601f850160051c81016020861015620002b55750805b601f850160051c820191505b81811015620002d657828155600101620002c1565b5050505b505050565b81516001600160401b03811115620002fb57620002fb62000165565b62000313816200030c845462000250565b846200028c565b602080601f8311600181146200034b5760008415620003325750858301515b600019600386901b1c1916600185901b178555620002d6565b600085815260208120601f198616915b828110156200037c578886015182559484019460019091019084016200035b565b50858210156200039b5787850151600019600388901b60f8161c191681555b5050505050600190811b01905550565b611f9f80620003bb6000396000f3fe6080604052600436106101815760003560e01c806355f804b3116100d1578063a22cb4651161008a578063c87b56dd11610064578063c87b56dd14610451578063e985e9c514610471578063f2fde38b146104ba578063f5b100ea146104da57600080fd5b8063a22cb465146103f1578063ae10426514610411578063b88d4fde1461043157600080fd5b806355f804b3146103495780636352211e1461036957806370a0823114610389578063715018a6146103a95780638da5cb5b146103be57806395d89b41146103dc57600080fd5b8063225e860d1161013e5780632e1a7d4d116101185780632e1a7d4d146102c95780632f745c59146102e957806342842e0e146103095780634f6ccce71461032957600080fd5b8063225e860d1461027657806323b872dd1461029657806328bd4522146102b657600080fd5b806301ffc9a71461018657806306fdde03146101bb578063081812fc146101dd578063095ea7b31461021557806318160ddd1461023757806319ab453c14610256575b600080fd5b34801561019257600080fd5b506101a66101a1366004611919565b6104fa565b60405190151581526020015b60405180910390f35b3480156101c757600080fd5b506101d0610525565b6040516101b29190611986565b3480156101e957600080fd5b506101fd6101f8366004611999565b6105b7565b6040516001600160a01b0390911681526020016101b2565b34801561022157600080fd5b506102356102303660046119ce565b6105de565b005b34801561024357600080fd5b506008545b6040519081526020016101b2565b34801561026257600080fd5b506102356102713660046119f8565b6106f8565b34801561028257600080fd5b506102356102913660046119f8565b610737565b3480156102a257600080fd5b506102356102b1366004611a13565b6107ad565b6102356102c4366004611999565b6107de565b3480156102d557600080fd5b506102356102e4366004611999565b610916565b3480156102f557600080fd5b506102486103043660046119ce565b6109a3565b34801561031557600080fd5b50610235610324366004611a13565b610a39565b34801561033557600080fd5b50610248610344366004611999565b610a54565b34801561035557600080fd5b50610235610364366004611adb565b610ae7565b34801561037557600080fd5b506101fd610384366004611999565b610afb565b34801561039557600080fd5b506102486103a43660046119f8565b610b5b565b3480156103b557600080fd5b50610235610be1565b3480156103ca57600080fd5b50600a546001600160a01b03166101fd565b3480156103e857600080fd5b506101d0610bf5565b3480156103fd57600080fd5b5061023561040c366004611b32565b610c04565b34801561041d57600080fd5b5061024861042c366004611999565b610c0f565b34801561043d57600080fd5b5061023561044c366004611b69565b610c2d565b34801561045d57600080fd5b506101d061046c366004611999565b610c65565b34801561047d57600080fd5b506101a661048c366004611be5565b6001600160a01b03918216600090815260056020908152604080832093909416825291909152205460ff1690565b3480156104c657600080fd5b506102356104d53660046119f8565b610ccc565b3480156104e657600080fd5b506102486104f53660046119f8565b610cfe565b60006001600160e01b0319821663780e9d6360e01b148061051f575061051f82610d51565b92915050565b60606000805461053490611c18565b80601f016020809104026020016040519081016040528092919081815260200182805461056090611c18565b80156105ad5780601f10610582576101008083540402835291602001916105ad565b820191906000526020600020905b81548152906001019060200180831161059057829003601f168201915b5050505050905090565b60006105c282610da1565b506000908152600460205260409020546001600160a01b031690565b60006105e982610afb565b9050806001600160a01b0316836001600160a01b03160361065b5760405162461bcd60e51b815260206004820152602160248201527f4552433732313a20617070726f76616c20746f2063757272656e74206f776e656044820152603960f91b60648201526084015b60405180910390fd5b336001600160a01b03821614806106775750610677813361048c565b6106e95760405162461bcd60e51b815260206004820152603d60248201527f4552433732313a20617070726f76652063616c6c6572206973206e6f7420746f60448201527f6b656e206f776e6572206f7220617070726f76656420666f7220616c6c0000006064820152608401610652565b6106f38383610e00565b505050565b600d5460ff161561070857600080fd5b600e80546001600160a01b0319166001600160a01b0392909216919091179055600d805460ff19166001179055565b600d5461010090046001600160a01b031633146107a15760405162461bcd60e51b815260206004820152602260248201527f4f6e6c79206d61737465722063616e2063616c6c20746869732066756e63746960448201526137b760f11b6064820152608401610652565b6107aa81610e6e565b50565b6107b73382610ec0565b6107d35760405162461bcd60e51b815260040161065290611c52565b6106f3838383610f3f565b60006107e960085490565b9050600282111561083c5760405162461bcd60e51b815260206004820152601f60248201527f596f752063616e206f6e6c79206d696e7420757020746f2032205369676e73006044820152606401610652565b600c546108498383611cb5565b11156108975760405162461bcd60e51b815260206004820152601c60248201527f45786365656473206d6178696d756d205369676e7320737570706c79000000006044820152606401610652565b6108a133836110b0565b600e5460405163a9059cbb60e01b8152336004820152606460248201526001600160a01b039091169063a9059cbb906044016020604051808303816000875af11580156108f2573d6000803e3d6000fd5b505050506040513d601f19601f820116820180604052508101906106f39190611cc8565b61091e6110ca565b478111156109655760405162461bcd60e51b8152602060048201526014602482015273496e73756666696369656e742062616c616e636560601b6044820152606401610652565b600a546040516001600160a01b039091169082156108fc029083906000818181858888f1935050505015801561099f573d6000803e3d6000fd5b5050565b60006109ae83610b5b565b8210610a105760405162461bcd60e51b815260206004820152602b60248201527f455243373231456e756d657261626c653a206f776e657220696e646578206f7560448201526a74206f6620626f756e647360a81b6064820152608401610652565b506001600160a01b03919091166000908152600660209081526040808320938352929052205490565b6106f383838360405180602001604052806000815250610c2d565b6000610a5f60085490565b8210610ac25760405162461bcd60e51b815260206004820152602c60248201527f455243373231456e756d657261626c653a20676c6f62616c20696e646578206f60448201526b7574206f6620626f756e647360a01b6064820152608401610652565b60088281548110610ad557610ad5611ce5565b90600052602060002001549050919050565b610aef6110ca565b600b61099f8282611d49565b6000818152600260205260408120546001600160a01b03168061051f5760405162461bcd60e51b8152602060048201526018602482015277115490cdcc8c4e881a5b9d985b1a59081d1bdad95b88125160421b6044820152606401610652565b60006001600160a01b038216610bc55760405162461bcd60e51b815260206004820152602960248201527f4552433732313a2061646472657373207a65726f206973206e6f7420612076616044820152683634b21037bbb732b960b91b6064820152608401610652565b506001600160a01b031660009081526003602052604090205490565b610be96110ca565b610bf36000610e6e565b565b60606001805461053490611c18565b61099f3383836110f7565b6000610c1c826018611e09565b61051f9066038d7ea4c68000611e09565b610c373383610ec0565b610c535760405162461bcd60e51b815260040161065290611c52565b610c5f848484846111c5565b50505050565b6060610c7082610da1565b6000610c7a6111f8565b90506000815111610c9a5760405180602001604052806000815250610cc5565b80610ca484611207565b604051602001610cb5929190611e20565b6040516020818303038152906040525b9392505050565b610cd46110ca565b6001600160a01b0381166107a157604051631e4fbdf760e01b815260006004820152602401610652565b60006001600160a01b038216610d485760405162461bcd60e51b815260206004820152600f60248201526e496e76616c6964206164647265737360881b6044820152606401610652565b61051f82610b5b565b60006001600160e01b031982166380ac58cd60e01b1480610d8257506001600160e01b03198216635b5e139f60e01b145b8061051f57506301ffc9a760e01b6001600160e01b031983161461051f565b6000818152600260205260409020546001600160a01b03166107aa5760405162461bcd60e51b8152602060048201526018602482015277115490cdcc8c4e881a5b9d985b1a59081d1bdad95b88125160421b6044820152606401610652565b600081815260046020526040902080546001600160a01b0319166001600160a01b0384169081179091558190610e3582610afb565b6001600160a01b03167f8c5be1e5ebec7d5bd14f71427d1e84f3dd0314c0f7b2291e5b200ac8c7c3b92560405160405180910390a45050565b600a80546001600160a01b038381166001600160a01b0319831681179093556040519116919082907f8be0079c531659141344cd1fd0a4f28419497f9722a3daafe3b4186f6b6457e090600090a35050565b600080610ecc83610afb565b9050806001600160a01b0316846001600160a01b03161480610f1357506001600160a01b0380821660009081526005602090815260408083209388168352929052205460ff165b80610f375750836001600160a01b0316610f2c846105b7565b6001600160a01b0316145b949350505050565b826001600160a01b0316610f5282610afb565b6001600160a01b031614610f785760405162461bcd60e51b815260040161065290611e4f565b6001600160a01b038216610fda5760405162461bcd60e51b8152602060048201526024808201527f4552433732313a207472616e7366657220746f20746865207a65726f206164646044820152637265737360e01b6064820152608401610652565b610fe7838383600161129a565b826001600160a01b0316610ffa82610afb565b6001600160a01b0316146110205760405162461bcd60e51b815260040161065290611e4f565b600081815260046020908152604080832080546001600160a01b03199081169091556001600160a01b0387811680865260038552838620805460001901905590871680865283862080546001019055868652600290945282852080549092168417909155905184937fddf252ad1be2c89b69c2b068fc378daa952ba7f163c4a11628f55a4df523b3ef91a4505050565b61099f8282604051806020016040528060008152506113ce565b600a546001600160a01b03163314610bf35760405163118cdaa760e01b8152336004820152602401610652565b816001600160a01b0316836001600160a01b0316036111585760405162461bcd60e51b815260206004820152601960248201527f4552433732313a20617070726f766520746f2063616c6c6572000000000000006044820152606401610652565b6001600160a01b03838116600081815260056020908152604080832094871680845294825291829020805460ff191686151590811790915591519182527f17307eab39ab6107e8899845ad3d59bd9653f200f220920489ca2b5937696c31910160405180910390a3505050565b6111d0848484610f3f565b6111dc84848484611401565b610c5f5760405162461bcd60e51b815260040161065290611e94565b6060600b805461053490611c18565b6060600061121483611502565b600101905060008167ffffffffffffffff81111561123457611234611a4f565b6040519080825280601f01601f19166020018201604052801561125e576020820181803683370190505b5090508181016020015b600019016f181899199a1a9b1b9c1cb0b131b232b360811b600a86061a8153600a850494508461126857509392505050565b60018111156113095760405162461bcd60e51b815260206004820152603560248201527f455243373231456e756d657261626c653a20636f6e7365637574697665207472604482015274185b9cd9995c9cc81b9bdd081cdd5c1c1bdc9d1959605a1b6064820152608401610652565b816001600160a01b0385166113655761136081600880546000838152600960205260408120829055600182018355919091527ff3f7a9fe364faab93b216da50a3214154f22a0a2b415b23a84c8169e8b636ee30155565b611388565b836001600160a01b0316856001600160a01b0316146113885761138885826115da565b6001600160a01b0384166113a45761139f81611677565b6113c7565b846001600160a01b0316846001600160a01b0316146113c7576113c78482611726565b5050505050565b6113d8838361176a565b6113e56000848484611401565b6106f35760405162461bcd60e51b815260040161065290611e94565b60006001600160a01b0384163b156114f757604051630a85bd0160e11b81526001600160a01b0385169063150b7a0290611445903390899088908890600401611ee6565b6020604051808303816000875af1925050508015611480575060408051601f3d908101601f1916820190925261147d91810190611f23565b60015b6114dd573d8080156114ae576040519150601f19603f3d011682016040523d82523d6000602084013e6114b3565b606091505b5080516000036114d55760405162461bcd60e51b815260040161065290611e94565b805181602001fd5b6001600160e01b031916630a85bd0160e11b149050610f37565b506001949350505050565b60008072184f03e93ff9f4daa797ed6e38ed64bf6a1f0160401b83106115415772184f03e93ff9f4daa797ed6e38ed64bf6a1f0160401b830492506040015b6d04ee2d6d415b85acef8100000000831061156d576d04ee2d6d415b85acef8100000000830492506020015b662386f26fc10000831061158b57662386f26fc10000830492506010015b6305f5e10083106115a3576305f5e100830492506008015b61271083106115b757612710830492506004015b606483106115c9576064830492506002015b600a831061051f5760010192915050565b600060016115e784610b5b565b6115f19190611f40565b600083815260076020526040902054909150808214611644576001600160a01b03841660009081526006602090815260408083208584528252808320548484528184208190558352600790915290208190555b5060009182526007602090815260408084208490556001600160a01b039094168352600681528383209183525290812055565b60085460009061168990600190611f40565b600083815260096020526040812054600880549394509092849081106116b1576116b1611ce5565b9060005260206000200154905080600883815481106116d2576116d2611ce5565b600091825260208083209091019290925582815260099091526040808220849055858252812055600880548061170a5761170a611f53565b6001900381819060005260206000200160009055905550505050565b600061173183610b5b565b6001600160a01b039093166000908152600660209081526040808320868452825280832085905593825260079052919091209190915550565b6001600160a01b0382166117c05760405162461bcd60e51b815260206004820181905260248201527f4552433732313a206d696e7420746f20746865207a65726f20616464726573736044820152606401610652565b6000818152600260205260409020546001600160a01b0316156118255760405162461bcd60e51b815260206004820152601c60248201527f4552433732313a20746f6b656e20616c7265616479206d696e746564000000006044820152606401610652565b61183360008383600161129a565b6000818152600260205260409020546001600160a01b0316156118985760405162461bcd60e51b815260206004820152601c60248201527f4552433732313a20746f6b656e20616c7265616479206d696e746564000000006044820152606401610652565b6001600160a01b038216600081815260036020908152604080832080546001019055848352600290915280822080546001600160a01b0319168417905551839291907fddf252ad1be2c89b69c2b068fc378daa952ba7f163c4a11628f55a4df523b3ef908290a45050565b6001600160e01b0319811681146107aa57600080fd5b60006020828403121561192b57600080fd5b8135610cc581611903565b60005b83811015611951578181015183820152602001611939565b50506000910152565b60008151808452611972816020860160208601611936565b601f01601f19169290920160200192915050565b602081526000610cc5602083018461195a565b6000602082840312156119ab57600080fd5b5035919050565b80356001600160a01b03811681146119c957600080fd5b919050565b600080604083850312156119e157600080fd5b6119ea836119b2565b946020939093013593505050565b600060208284031215611a0a57600080fd5b610cc5826119b2565b600080600060608486031215611a2857600080fd5b611a31846119b2565b9250611a3f602085016119b2565b9150604084013590509250925092565b634e487b7160e01b600052604160045260246000fd5b600067ffffffffffffffff80841115611a8057611a80611a4f565b604051601f8501601f19908116603f01168101908282118183101715611aa857611aa8611a4f565b81604052809350858152868686011115611ac157600080fd5b858560208301376000602087830101525050509392505050565b600060208284031215611aed57600080fd5b813567ffffffffffffffff811115611b0457600080fd5b8201601f81018413611b1557600080fd5b610f3784823560208401611a65565b80151581146107aa57600080fd5b60008060408385031215611b4557600080fd5b611b4e836119b2565b91506020830135611b5e81611b24565b809150509250929050565b60008060008060808587031215611b7f57600080fd5b611b88856119b2565b9350611b96602086016119b2565b925060408501359150606085013567ffffffffffffffff811115611bb957600080fd5b8501601f81018713611bca57600080fd5b611bd987823560208401611a65565b91505092959194509250565b60008060408385031215611bf857600080fd5b611c01836119b2565b9150611c0f602084016119b2565b90509250929050565b600181811c90821680611c2c57607f821691505b602082108103611c4c57634e487b7160e01b600052602260045260246000fd5b50919050565b6020808252602d908201527f4552433732313a2063616c6c6572206973206e6f7420746f6b656e206f776e6560408201526c1c881bdc88185c1c1c9bdd9959609a1b606082015260800190565b634e487b7160e01b600052601160045260246000fd5b8082018082111561051f5761051f611c9f565b600060208284031215611cda57600080fd5b8151610cc581611b24565b634e487b7160e01b600052603260045260246000fd5b601f8211156106f357600081815260208120601f850160051c81016020861015611d225750805b601f850160051c820191505b81811015611d4157828155600101611d2e565b505050505050565b815167ffffffffffffffff811115611d6357611d63611a4f565b611d7781611d718454611c18565b84611cfb565b602080601f831160018114611dac5760008415611d945750858301515b600019600386901b1c1916600185901b178555611d41565b600085815260208120601f198616915b82811015611ddb57888601518255948401946001909101908401611dbc565b5085821015611df95787850151600019600388901b60f8161c191681555b5050505050600190811b01905550565b808202811582820484141761051f5761051f611c9f565b60008351611e32818460208801611936565b835190830190611e46818360208801611936565b01949350505050565b60208082526025908201527f4552433732313a207472616e736665722066726f6d20696e636f72726563742060408201526437bbb732b960d91b606082015260800190565b60208082526032908201527f4552433732313a207472616e7366657220746f206e6f6e20455243373231526560408201527131b2b4bb32b91034b6b83632b6b2b73a32b960711b606082015260800190565b6001600160a01b0385811682528416602082015260408101839052608060608201819052600090611f199083018461195a565b9695505050505050565b600060208284031215611f3557600080fd5b8151610cc581611903565b8181038181111561051f5761051f611c9f565b634e487b7160e01b600052603160045260246000fdfea26469706673582212206b9b3881a8f83042c940b959b140116755d4bad022b00f5dc50e6e36adbaba6c64736f6c63430008140033",
  "devdoc": {
    "errors": {
      "OwnableInvalidOwner(address)": [
        {
          "details": "The owner is not a valid owner account. (eg. `address(0)`)"
        }
      ],
      "OwnableUnauthorizedAccount(address)": [
        {
          "details": "The caller account is not authorized to perform an operation."
        }
      ]
    },
    "events": {
      "Approval(address,address,uint256)": {
        "details": "Emitted when `owner` enables `approved` to manage the `tokenId` token."
      },
      "ApprovalForAll(address,address,bool)": {
        "details": "Emitted when `owner` enables or disables (`approved`) `operator` to manage all of its assets."
      },
      "Transfer(address,address,uint256)": {
        "details": "Emitted when `tokenId` token is transferred from `from` to `to`."
      }
    },
    "kind": "dev",
    "methods": {
      "approve(address,uint256)": {
        "details": "See {IERC721-approve}."
      },
      "balanceOf(address)": {
        "details": "See {IERC721-balanceOf}."
      },
      "getApproved(uint256)": {
        "details": "See {IERC721-getApproved}."
      },
      "isApprovedForAll(address,address)": {
        "details": "See {IERC721-isApprovedForAll}."
      },
      "name()": {
        "details": "See {IERC721Metadata-name}."
      },
      "owner()": {
        "details": "Returns the address of the current owner."
      },
      "ownerOf(uint256)": {
        "details": "See {IERC721-ownerOf}."
      },
      "renounceOwnership()": {
        "details": "Leaves the contract without owner. It will not be possible to call `onlyOwner` functions. Can only be called by the current owner. NOTE: Renouncing ownership will leave the contract without an owner, thereby disabling any functionality that is only available to the owner."
      },
      "safeTransferFrom(address,address,uint256)": {
        "details": "See {IERC721-safeTransferFrom}."
      },
      "safeTransferFrom(address,address,uint256,bytes)": {
        "details": "See {IERC721-safeTransferFrom}."
      },
      "setApprovalForAll(address,bool)": {
        "details": "See {IERC721-setApprovalForAll}."
      },
      "supportsInterface(bytes4)": {
        "details": "See {IERC165-supportsInterface}."
      },
      "symbol()": {
        "details": "See {IERC721Metadata-symbol}."
      },
      "tokenByIndex(uint256)": {
        "details": "See {IERC721Enumerable-tokenByIndex}."
      },
      "tokenOfOwnerByIndex(address,uint256)": {
        "details": "See {IERC721Enumerable-tokenOfOwnerByIndex}."
      },
      "tokenURI(uint256)": {
        "details": "See {IERC721Metadata-tokenURI}."
      },
      "totalSupply()": {
        "details": "See {IERC721Enumerable-totalSupply}."
      },
      "transferFrom(address,address,uint256)": {
        "details": "See {IERC721-transferFrom}."
      },
      "transferOwnership(address)": {
        "details": "Transfers ownership of the contract to a new account (`newOwner`). Can only be called by the current owner."
      }
    },
    "version": 1
  },
  "userdoc": {
    "kind": "user",
    "methods": {},
    "version": 1
  },
  "storageLayout": {
    "storage": [
      {
        "astId": 863,
        "contract": "contracts/SignsNFT.sol:SignsNFT",
        "label": "_name",
        "offset": 0,
        "slot": "0",
        "type": "t_string_storage"
      },
      {
        "astId": 865,
        "contract": "contracts/SignsNFT.sol:SignsNFT",
        "label": "_symbol",
        "offset": 0,
        "slot": "1",
        "type": "t_string_storage"
      },
      {
        "astId": 869,
        "contract": "contracts/SignsNFT.sol:SignsNFT",
        "label": "_owners",
        "offset": 0,
        "slot": "2",
        "type": "t_mapping(t_uint256,t_address)"
      },
      {
        "astId": 873,
        "contract": "contracts/SignsNFT.sol:SignsNFT",
        "label": "_balances",
        "offset": 0,
        "slot": "3",
        "type": "t_mapping(t_address,t_uint256)"
      },
      {
        "astId": 877,
        "contract": "contracts/SignsNFT.sol:SignsNFT",
        "label": "_tokenApprovals",
        "offset": 0,
        "slot": "4",
        "type": "t_mapping(t_uint256,t_address)"
      },
      {
        "astId": 883,
        "contract": "contracts/SignsNFT.sol:SignsNFT",
        "label": "_operatorApprovals",
        "offset": 0,
        "slot": "5",
        "type": "t_mapping(t_address,t_mapping(t_address,t_bool))"
      },
      {
        "astId": 1913,
        "contract": "contracts/SignsNFT.sol:SignsNFT",
        "label": "_ownedTokens",
        "offset": 0,
        "slot": "6",
        "type": "t_mapping(t_address,t_mapping(t_uint256,t_uint256))"
      },
      {
        "astId": 1917,
        "contract": "contracts/SignsNFT.sol:SignsNFT",
        "label": "_ownedTokensIndex",
        "offset": 0,
        "slot": "7",
        "type": "t_mapping(t_uint256,t_uint256)"
      },
      {
        "astId": 1920,
        "contract": "contracts/SignsNFT.sol:SignsNFT",
        "label": "_allTokens",
        "offset": 0,
        "slot": "8",
        "type": "t_array(t_uint256)dyn_storage"
      },
      {
        "astId": 1924,
        "contract": "contracts/SignsNFT.sol:SignsNFT",
        "label": "_allTokensIndex",
        "offset": 0,
        "slot": "9",
        "type": "t_mapping(t_uint256,t_uint256)"
      },
      {
        "astId": 8,
        "contract": "contracts/SignsNFT.sol:SignsNFT",
        "label": "_owner",
        "offset": 0,
        "slot": "10",
        "type": "t_address"
      },
      {
        "astId": 4017,
        "contract": "contracts/SignsNFT.sol:SignsNFT",
        "label": "_baseTokenURI",
        "offset": 0,
        "slot": "11",
        "type": "t_string_storage"
      },
      {
        "astId": 4020,
        "contract": "contracts/SignsNFT.sol:SignsNFT",
        "label": "_maxSupply",
        "offset": 0,
        "slot": "12",
        "type": "t_uint256"
      },
      {
        "astId": 4022,
        "contract": "contracts/SignsNFT.sol:SignsNFT",
        "label": "initialized",
        "offset": 0,
        "slot": "13",
        "type": "t_bool"
      },
      {
        "astId": 4025,
        "contract": "contracts/SignsNFT.sol:SignsNFT",
        "label": "_master",
        "offset": 1,
        "slot": "13",
        "type": "t_address"
      },
      {
        "astId": 4028,
        "contract": "contracts/SignsNFT.sol:SignsNFT",
        "label": "necessitiesToken",
        "offset": 0,
        "slot": "14",
        "type": "t_contract(NecessitiesToken)4006"
      }
    ],
    "types": {
      "t_address": {
        "encoding": "inplace",
        "label": "address",
        "numberOfBytes": "20"
      },
      "t_array(t_uint256)dyn_storage": {
        "base": "t_uint256",
        "encoding": "dynamic_array",
        "label": "uint256[]",
        "numberOfBytes": "32"
      },
      "t_bool": {
        "encoding": "inplace",
        "label": "bool",
        "numberOfBytes": "1"
      },
      "t_contract(NecessitiesToken)4006": {
        "encoding": "inplace",
        "label": "contract NecessitiesToken",
        "numberOfBytes": "20"
      },
      "t_mapping(t_address,t_bool)": {
        "encoding": "mapping",
        "key": "t_address",
        "label": "mapping(address => bool)",
        "numberOfBytes": "32",
        "value": "t_bool"
      },
      "t_mapping(t_address,t_mapping(t_address,t_bool))": {
        "encoding": "mapping",
        "key": "t_address",
        "label": "mapping(address => mapping(address => bool))",
        "numberOfBytes": "32",
        "value": "t_mapping(t_address,t_bool)"
      },
      "t_mapping(t_address,t_mapping(t_uint256,t_uint256))": {
        "encoding": "mapping",
        "key": "t_address",
        "label": "mapping(address => mapping(uint256 => uint256))",
        "numberOfBytes": "32",
        "value": "t_mapping(t_uint256,t_uint256)"
      },
      "t_mapping(t_address,t_uint256)": {
        "encoding": "mapping",
        "key": "t_address",
        "label": "mapping(address => uint256)",
        "numberOfBytes": "32",
        "value": "t_uint256"
      },
      "t_mapping(t_uint256,t_address)": {
        "encoding": "mapping",
        "key": "t_uint256",
        "label": "mapping(uint256 => address)",
        "numberOfBytes": "32",
        "value": "t_address"
      },
      "t_mapping(t_uint256,t_uint256)": {
        "encoding": "mapping",
        "key": "t_uint256",
        "label": "mapping(uint256 => uint256)",
        "numberOfBytes": "32",
        "value": "t_uint256"
      },
      "t_string_storage": {
        "encoding": "bytes",
        "label": "string",
        "numberOfBytes": "32"
      },
      "t_uint256": {
        "encoding": "inplace",
        "label": "uint256",
        "numberOfBytes": "32"
      }
    }
  }
}